{
  "_format": "hh-sol-artifact-1",
  "contractName": "WavePortal",
  "sourceName": "contracts/WavePortal.sol",
  "abi": [
    {
      "inputs": [],
      "stateMutability": "payable",
      "type": "constructor"
    },
    {
      "anonymous": false,
      "inputs": [
        {
          "components": [
            {
              "internalType": "address",
              "name": "writer",
              "type": "address"
            },
            {
              "internalType": "string",
              "name": "message",
              "type": "string"
            }
          ],
          "indexed": false,
          "internalType": "struct WavePortal.Message",
          "name": "message",
          "type": "tuple"
        }
      ],
      "name": "MessageGenerated",
      "type": "event"
    },
    {
      "anonymous": false,
      "inputs": [
        {
          "indexed": false,
          "internalType": "address",
          "name": "writer",
          "type": "address"
        },
        {
          "indexed": false,
          "internalType": "string",
          "name": "message",
          "type": "string"
        }
      ],
      "name": "NewMessageReceived",
      "type": "event"
    },
    {
      "inputs": [],
      "name": "checkUserSentMessage",
      "outputs": [
        {
          "internalType": "bool",
          "name": "",
          "type": "bool"
        }
      ],
      "stateMutability": "view",
      "type": "function"
    },
    {
      "inputs": [],
      "name": "getMessageOfTheDay",
      "outputs": [
        {
          "components": [
            {
              "internalType": "address",
              "name": "writer",
              "type": "address"
            },
            {
              "internalType": "string",
              "name": "message",
              "type": "string"
            }
          ],
          "internalType": "struct WavePortal.Message",
          "name": "",
          "type": "tuple"
        }
      ],
      "stateMutability": "view",
      "type": "function"
    },
    {
      "inputs": [],
      "name": "getReads",
      "outputs": [
        {
          "internalType": "uint256",
          "name": "",
          "type": "uint256"
        },
        {
          "internalType": "uint256",
          "name": "",
          "type": "uint256"
        }
      ],
      "stateMutability": "view",
      "type": "function"
    },
    {
      "inputs": [
        {
          "internalType": "address",
          "name": "",
          "type": "address"
        }
      ],
      "name": "lastSuggestionAt",
      "outputs": [
        {
          "internalType": "uint256",
          "name": "",
          "type": "uint256"
        }
      ],
      "stateMutability": "view",
      "type": "function"
    },
    {
      "inputs": [
        {
          "internalType": "string",
          "name": "message",
          "type": "string"
        }
      ],
      "name": "receiveMessageOfTheDay",
      "outputs": [],
      "stateMutability": "nonpayable",
      "type": "function"
    }
  ],
  "bytecode": "0x6080604052620000336040518060600160405280602e815260200162001ab7602e9139620002d360201b620007d21760201c565b4260028190555060006003819055506000339050600460405180604001604052808373ffffffffffffffffffffffffffffffffffffffff16815260200160405180606001604052806032815260200162001a6360329139815250908060018154018082558091505060019003906000526020600020906002020160009091909190915060008201518160000160006101000a81548173ffffffffffffffffffffffffffffffffffffffff021916908373ffffffffffffffffffffffffffffffffffffffff16021790555060208201518160010190805190602001906200011b9291906200039f565b505050600460405180604001604052808373ffffffffffffffffffffffffffffffffffffffff16815260200160405180606001604052806022815260200162001a9560229139815250908060018154018082558091505060019003906000526020600020906002020160009091909190915060008201518160000160006101000a81548173ffffffffffffffffffffffffffffffffffffffff021916908373ffffffffffffffffffffffffffffffffffffffff1602179055506020820151816001019080519060200190620001f29291906200039f565b505050600460405180604001604052808373ffffffffffffffffffffffffffffffffffffffff1681526020016040518060a001604052806062815260200162001ae560629139815250908060018154018082558091505060019003906000526020600020906002020160009091909190915060008201518160000160006101000a81548173ffffffffffffffffffffffffffffffffffffffff021916908373ffffffffffffffffffffffffffffffffffffffff1602179055506020820151816001019080519060200190620002c99291906200039f565b505050506200057c565b6200037381604051602401620002ea919062000490565b6040516020818303038152906040527f41304fac000000000000000000000000000000000000000000000000000000007bffffffffffffffffffffffffffffffffffffffffffffffffffffffff19166020820180517bffffffffffffffffffffffffffffffffffffffffffffffffffffffff83818316178352505050506200037660201b60201c565b50565b60008151905060006a636f6e736f6c652e6c6f679050602083016000808483855afa5050505050565b828054620003ad9062000506565b90600052602060002090601f016020900481019282620003d157600085556200041d565b82601f10620003ec57805160ff19168380011785556200041d565b828001600101855582156200041d579182015b828111156200041c578251825591602001919060010190620003ff565b5b5090506200042c919062000430565b5090565b5b808211156200044b57600081600090555060010162000431565b5090565b60006200045c82620004b4565b620004688185620004bf565b93506200047a818560208601620004d0565b62000485816200056b565b840191505092915050565b60006020820190508181036000830152620004ac81846200044f565b905092915050565b600081519050919050565b600082825260208201905092915050565b60005b83811015620004f0578082015181840152602081019050620004d3565b8381111562000500576000848401525b50505050565b600060028204905060018216806200051f57607f821691505b602082108114156200053657620005356200053c565b5b50919050565b7f4e487b7100000000000000000000000000000000000000000000000000000000600052602260045260246000fd5b6000601f19601f8301169050919050565b6114d7806200058c6000396000f3fe608060405234801561001057600080fd5b50600436106100575760003560e01c8063773f5b9b1461005c5780638f7b8b661461007a578063b109baec14610096578063ba8a14ae146100b4578063d3993663146100e4575b600080fd5b610064610103565b6040516100719190610f31565b60405180910390f35b610094600480360381019061008f9190610b45565b610179565b005b61009e6105d0565b6040516100ab919061104e565b60405180910390f35b6100ce60048036038101906100c99190610b1c565b610761565b6040516100db9190611092565b60405180910390f35b6100ec610779565b6040516100fa9291906110ad565b60405180910390f35b6000620151804261011491906111da565b62015180600560003373ffffffffffffffffffffffffffffffffffffffff1673ffffffffffffffffffffffffffffffffffffffff1681526020019081526020016000205461016291906111da565b14156101715760019050610176565b600090505b90565b620151804261018891906111da565b62015180600560003373ffffffffffffffffffffffffffffffffffffffff1673ffffffffffffffffffffffffffffffffffffffff168152602001908152602001600020546101d691906111da565b1415610217576040517f08c379a000000000000000000000000000000000000000000000000000000000815260040161020e9061102e565b60405180910390fd5b42600560003373ffffffffffffffffffffffffffffffffffffffff1673ffffffffffffffffffffffffffffffffffffffff16815260200190815260200160002081905550600160008082825461026d9190611184565b925050819055506102b36040518060400160405280601881526020017f2573207065646975206120667261736520646f206469612100000000000000008152503361086b565b620151806002546102c491906111da565b62015180426102d391906111da565b1461032b5742600281905550600060018190555060016004805490506102f9919061120b565b600354141561030f57600060038190555061032a565b6001600360008282546103229190611184565b925050819055505b5b600180600082825461033d9190611184565b925050819055507feeb296cd70b2d9e8289845c0a72054119725e4304017881a7bef2b8e2e5237a26004600354815481106103a1577f4e487b7100000000000000000000000000000000000000000000000000000000600052603260045260246000fd5b90600052602060002090600202016040516103bc9190611070565b60405180910390a1600460405180604001604052803373ffffffffffffffffffffffffffffffffffffffff16815260200183815250908060018154018082558091505060019003906000526020600020906002020160009091909190915060008201518160000160006101000a81548173ffffffffffffffffffffffffffffffffffffffff021916908373ffffffffffffffffffffffffffffffffffffffff160217905550602082015181600101908051906020019061047d9291906109cc565b5050507f09ebabe8d5d5b646326dce718fffb37f35ff9f3a95f6308393448cb69f8116c733826040516104b1929190610f01565b60405180910390a1600060646000546104ca9190611335565b14156105cd576000655af3107a400090504781111561051e576040517f08c379a000000000000000000000000000000000000000000000000000000000815260040161051590610fee565b60405180910390fd5b60003373ffffffffffffffffffffffffffffffffffffffff168260405161054490610eec565b60006040518083038185875af1925050503d8060008114610581576040519150601f19603f3d011682016040523d82523d6000602084013e610586565b606091505b50509050806105ca576040517f08c379a00000000000000000000000000000000000000000000000000000000081526004016105c19061100e565b60405180910390fd5b50505b50565b6105d8610a52565b6105e0610103565b61061f576040517f08c379a000000000000000000000000000000000000000000000000000000000815260040161061690610fce565b60405180910390fd5b60046003548154811061065b577f4e487b7100000000000000000000000000000000000000000000000000000000600052603260045260246000fd5b90600052602060002090600202016040518060400160405290816000820160009054906101000a900473ffffffffffffffffffffffffffffffffffffffff1673ffffffffffffffffffffffffffffffffffffffff1673ffffffffffffffffffffffffffffffffffffffff1681526020016001820180546106da906112e9565b80601f0160208091040260200160405190810160405280929190818152602001828054610706906112e9565b80156107535780601f1061072857610100808354040283529160200191610753565b820191906000526020600020905b81548152906001019060200180831161073657829003601f168201915b505050505081525050905090565b60056020528060005260406000206000915090505481565b6000806107a060405180606001604052806027815260200161147b60279139600054610907565b6107c460405180606001604052806023815260200161145860239139600154610907565b600054600154915091509091565b610868816040516024016107e69190610f4c565b6040516020818303038152906040527f41304fac000000000000000000000000000000000000000000000000000000007bffffffffffffffffffffffffffffffffffffffffffffffffffffffff19166020820180517bffffffffffffffffffffffffffffffffffffffffffffffffffffffff83818316178352505050506109a3565b50565b6109038282604051602401610881929190610f6e565b6040516020818303038152906040527f319af333000000000000000000000000000000000000000000000000000000007bffffffffffffffffffffffffffffffffffffffffffffffffffffffff19166020820180517bffffffffffffffffffffffffffffffffffffffffffffffffffffffff83818316178352505050506109a3565b5050565b61099f828260405160240161091d929190610f9e565b6040516020818303038152906040527f9710a9d0000000000000000000000000000000000000000000000000000000007bffffffffffffffffffffffffffffffffffffffffffffffffffffffff19166020820180517bffffffffffffffffffffffffffffffffffffffffffffffffffffffff83818316178352505050506109a3565b5050565b60008151905060006a636f6e736f6c652e6c6f679050602083016000808483855afa5050505050565b8280546109d8906112e9565b90600052602060002090601f0160209004810192826109fa5760008555610a41565b82601f10610a1357805160ff1916838001178555610a41565b82800160010185558215610a41579182015b82811115610a40578251825591602001919060010190610a25565b5b509050610a4e9190610a82565b5090565b6040518060400160405280600073ffffffffffffffffffffffffffffffffffffffff168152602001606081525090565b5b80821115610a9b576000816000905550600101610a83565b5090565b6000610ab2610aad84611107565b6110d6565b905082815260208101848484011115610aca57600080fd5b610ad58482856112a7565b509392505050565b600081359050610aec81611440565b92915050565b600082601f830112610b0357600080fd5b8135610b13848260208601610a9f565b91505092915050565b600060208284031215610b2e57600080fd5b6000610b3c84828501610add565b91505092915050565b600060208284031215610b5757600080fd5b600082013567ffffffffffffffff811115610b7157600080fd5b610b7d84828501610af2565b91505092915050565b610b8f8161125f565b82525050565b610b9e8161125f565b82525050565b610bad81611271565b82525050565b6000610bbe8261114c565b610bc88185611162565b9350610bd88185602086016112b6565b610be181611422565b840191505092915050565b6000610bf78261114c565b610c018185611173565b9350610c118185602086016112b6565b610c1a81611422565b840191505092915050565b60008154610c32816112e9565b610c3c8186611162565b94506001821660008114610c575760018114610c6957610c9c565b60ff1983168652602086019350610c9c565b610c7285611137565b60005b83811015610c9457815481890152600182019150602081019050610c75565b808801955050505b50505092915050565b6000610cb2602783611173565b91507f566f63652061696e6461206e616f206d616e646f75207375612073756765737460008301527f616f20686f6a65000000000000000000000000000000000000000000000000006020830152604082019050919050565b6000610d18603383611173565b91507f54656e74616e646f207361636172206d6169732064696e686569726f2071756560008301527f206f20636f6e747261746f20706f737375692e000000000000000000000000006020830152604082019050919050565b6000610d7e600083611157565b9150600082019050919050565b6000610d98602583611173565b91507f46616c686f7520656d2073616361722064696e686569726f20646f20636f6e7460008301527f7261746f2e0000000000000000000000000000000000000000000000000000006020830152604082019050919050565b6000610dfe602883611173565b91507f566f636520736f20706f64652066617a657220756d6120737567657374616f2060008301527f706f72206469612e0000000000000000000000000000000000000000000000006020830152604082019050919050565b6000604083016000830151610e6f6000860182610b86565b5060208301518482036020860152610e878282610bb3565b9150508091505092915050565b6000604083016000808401549050610eab8161131b565b610eb86000870182610b86565b50600184018583036020870152610ecf8382610c25565b925050819250505092915050565b610ee68161129d565b82525050565b6000610ef782610d71565b9150819050919050565b6000604082019050610f166000830185610b95565b8181036020830152610f288184610bec565b90509392505050565b6000602082019050610f466000830184610ba4565b92915050565b60006020820190508181036000830152610f668184610bec565b905092915050565b60006040820190508181036000830152610f888185610bec565b9050610f976020830184610b95565b9392505050565b60006040820190508181036000830152610fb88185610bec565b9050610fc76020830184610edd565b9392505050565b60006020820190508181036000830152610fe781610ca5565b9050919050565b6000602082019050818103600083015261100781610d0b565b9050919050565b6000602082019050818103600083015261102781610d8b565b9050919050565b6000602082019050818103600083015261104781610df1565b9050919050565b600060208201905081810360008301526110688184610e57565b905092915050565b6000602082019050818103600083015261108a8184610e94565b905092915050565b60006020820190506110a76000830184610edd565b92915050565b60006040820190506110c26000830185610edd565b6110cf6020830184610edd565b9392505050565b6000604051905081810181811067ffffffffffffffff821117156110fd576110fc6113f3565b5b8060405250919050565b600067ffffffffffffffff821115611122576111216113f3565b5b601f19601f8301169050602081019050919050565b60008190508160005260206000209050919050565b600081519050919050565b600081905092915050565b600082825260208201905092915050565b600082825260208201905092915050565b600061118f8261129d565b915061119a8361129d565b9250827fffffffffffffffffffffffffffffffffffffffffffffffffffffffffffffffff038211156111cf576111ce611366565b5b828201905092915050565b60006111e58261129d565b91506111f08361129d565b925082611200576111ff611395565b5b828204905092915050565b60006112168261129d565b91506112218361129d565b92508282101561123457611233611366565b5b828203905092915050565b600073ffffffffffffffffffffffffffffffffffffffff82169050919050565b600061126a8261127d565b9050919050565b60008115159050919050565b600073ffffffffffffffffffffffffffffffffffffffff82169050919050565b6000819050919050565b82818337600083830152505050565b60005b838110156112d45780820151818401526020810190506112b9565b838111156112e3576000848401525b50505050565b6000600282049050600182168061130157607f821691505b60208210811415611315576113146113c4565b5b50919050565b600061132e61132983611433565b61123f565b9050919050565b60006113408261129d565b915061134b8361129d565b92508261135b5761135a611395565b5b828206905092915050565b7f4e487b7100000000000000000000000000000000000000000000000000000000600052601160045260246000fd5b7f4e487b7100000000000000000000000000000000000000000000000000000000600052601260045260246000fd5b7f4e487b7100000000000000000000000000000000000000000000000000000000600052602260045260246000fd5b7f4e487b7100000000000000000000000000000000000000000000000000000000600052604160045260246000fd5b6000601f19601f8301169050919050565b60008160001c9050919050565b6114498161125f565b811461145457600080fd5b5056fe256420706573736f6173207065646972616d206120667261736520646520686f6a6521256420706573736f6173206a61207065646972616d2061732066726173657320646f2064696121a26469706673582212202532e5a0fd48f3ceda689216346aea8b54821308c849631555caa9efd1edbe7f64736f6c63430008000033436f6d206772616e64657320706f64657265732c2076656d206772616e64657320726573706f6e736162696c69646164657346616361206f75206e616f20666163613b2074656e746174697661206e616f2068614d6575207072696d6569726f20636f6e747261746f20696e74656c6967656e746521202d204173733a204a4731305175616e646f20766f636520656c696d696e61206f20696d706f73736976656c2c206f20717565207265737461722c206e616f20696d706f727461206f207175616f20696d70726f766176656c2c206465766520736572206120766572646164652e",
  "linkReferences": {},
  "deployedLinkReferences": {}
}